:020000040800F2
:1000000058380020C101000865440008213100086B
:1000100061440008850400086152000800000000E7
:10002000000000000000000000000000494C000833
:100030004F06000800000000674400084B4C000811
:10004000DB010008DB010008DB010008DB01000820
:10005000DB010008DB010008DB010008DB01000810
:10006000DB010008DB010008DB010008DB01000800
:10007000DB010008DB010008DB010008DB010008F0
:10008000DB010008DB010008DB010008DB010008E0
:10009000DB010008DB010008DB010008DB010008D0
:1000A000DB010008DB010008DB010008DB010008C0
:1000B000DB010008DB010008DB010008DB010008B0
:1000C000DB010008DB010008DB010008DB010008A0
:1000D000DB010008DB010008DB010008DB01000890
:1000E00065060008DB010008DB010008DB010008F1
:1000F000DB010008DB010008DB010008DB01000870
:10010000DB010008DB010008DB010008DB0100085F
:10011000DB010008DB010008254D0008DB010008B9
:10012000DB010008DB010008DB010008DB0100083F
:10013000DB010008DB010008DB010008DB0100082F
:10014000DB010008DB010008DB010008DB0100081F
:10015000DB010008DB010008DB010008DB0100080F
:10016000DB010008DB010008DB010008DB010008FF
:10017000DB010008DB010008DB01000800000000D3
:10018000DB010008DB010008DB010008DB010008DF
:10019000DB010008DB010008DB010008DB010008CF
:1001A000DB010008DB010008DB010008DFF80CD0F0
:1001B00000F09CF80048004775FA00085838002005
:1001C0000648804706480047FEE7FEE7FEE7FEE7F1
:1001D000FEE7FEE7FEE7FEE7FEE7FEE7094D000863
:1001E000AD0100082DE9F05F0546002092469B46D0
:1001F00088460646814640241BE02846414647463D
:10020000224600F063F853465A46C01A914110D373
:1002100011461846224600F04AF82D1A67EB0108ED
:100220004F4622460120002100F041F817EB00095B
:100230004E41201EA4F10104DFDC484631462A4627
:100240004346BDE8F09F40EA01039B0703D009E065
:1002500008C9121F08C0042AFAD203E011F8013BB2
:1002600000F8013B521EF9D27047D2B201E000F80B
:10027000012B491EFBD270470022F6E710B513464A
:100280000A4604461946FFF7F0FF204610BD421CFF
:1002900010F8011B0029FBD1801A7047034611F8A2
:1002A000012B00F8012B002AF9D118467047202AAB
:1002B00004DB203A00FA02F1002070479140C2F1BD
:1002C000200320FA03F3194390407047202A04DBEF
:1002D000203A21FA02F00021704721FA02F3D040BF
:1002E000C2F120029140084319467047064C074D61
:1002F00006E0E06840F0010394E8070098471034F6
:10030000AC42F6D3FFF756FF98610108B8610108C7
:1003100070B58C1810F8015B15F0070301D110F8C7
:10032000013B2A1106D110F8012B03E010F8016BF4
:1003300001F8016B5B1EF9D12B0705D40023521E77
:100340000DD401F8013BFAE710F8013BCB1A921CDF
:1003500003E013F8015B01F8015B521EF9D5A142DD
:10036000D8D3002070BD00000548006800EB800174
:1003700001EBC001034800EB8100806A7047000078
:10038000380000209C1000200548006800EB800128
:1003900001EBC001034800EB8100C06A7047000018
:1003A000380000209C10002000B58DB000BF002058
:1003B00000903048006840F080602E490860084690
:1003C000006800F08060009000BF00BF00BF002008
:1003D000009028481438006840F40000254914397A
:1003E00008600846006800F40000009000BF00BFED
:1003F00003F0FAFA20482149086000211F484161B2
:1004000081612E21C1611721016240F24E314162AA
:1004100040F2F71181624FF45971C16240F20D212F
:10042000016308200190C0200590052107914FF439
:1004300080300A9001A801F001FF4FF448710F4885
:1004400001664FF4F0714166002180F8361080F8A3
:10045000351080F834100020084948600021074812
:100460008160C160016101F03FFD054803F0F8FDC6
:100470000DB000BD44380240006801406410002007
:100480001000002000BFFEE72DE9F0470C4617469C
:100490009C46DDF82080D0F80090D9F8449009F00F
:1004A000404948EA0C4A49EA0A09D0F800A0CAF8CB
:1004B0004490D0F80090C9F83C70D0F80490B9F599
:1004C000403F4ED104F07F4604F47F0104F47F42A4
:1004D000E3B2D0F80890B9F1000F06D142EA010961
:1004E00049EA060949EA030536E0D0F80890B9F16F
:1004F000010F04D142EA010949EA03052CE0D0F8D2
:100500000890B9F1020F09D1C90C920ADB084FEA31
:10051000421949EAC12949EA03051DE0D0F80890CB
:10052000B9F1030F0CD1F60FC90CD20ADB084FEA60
:10053000421949EA812949EAC63949EA03050BE02B
:10054000360F090D120B1B094FEA021949EA01295E
:1005500049EA063949EA0305D0F80090C9F838504D
:1005600003E0D0F80090C9F80C40BDE8F087000027
:100570000146087810381823B0FBF3F20848805C75
:10058000C865032A05D908686FF30900001D88654E
:1005900003E008686FF309008865886D7047000004
:1005A00012FE0008014600208A6A8B69CBB932B17D
:1005B000012A0DD0022A03D0032A10D10EE000BF79
:1005C000CB6A03F08073B3F1807F00D1012007E094
:1005D000CB6AB3F1C07F00D1012001E000E000BF91
:1005E00034E08B69B3F5005F1AD132B1012A07D02C
:1005F000022A03D0032A11D10AE000BF01200EE035
:10060000CB6A03F08073B3F1807F00D1012006E054
:10061000CB6AB3F1C07F00D1012000E000BF15E03C
:1006200032B1012A05D0022A04D0032A0CD103E0FA
:1006300000BF00BF012008E0CB6A03F08073B3F174
:10064000807F00D1012000E000BF00BF70477047ED
:1006500001B502E00098401E009000980028F9D1F2
:1006600008BD000010B50648006800F4005028B12D
:1006700000F0CAFB4FF400500149086010BD0000B3
:10068000143C0140704730B502460023002408683E
:10069000012816D013686FF30E03D1E90105284332
:1006A000CD6828430D6928434D6928438D69284347
:1006B000CD6928430D6A28434D6A284303431360DC
:1006C00019E0136823F4F843D1E9070528434D6A7C
:1006D0002843034354686FF30E04D1E9010528430E
:1006E000CD6828430D6928434D6928438D69284307
:1006F000044313605460002030BD0246506940EA54
:100700004100506100207047F8B506460C4615467A
:10071000002000900027D4E900010843A168491E89
:1007200040EA4110E16840EA4120009000983061C1
:1007300000F0F0FF074609E0681C38B125B100F071
:10074000E9FFC01BA84201D90320F8BDB06900F041
:1007500020002028F0D00020F7E7000070B5034605
:10076000154600220024012D1FD09A6802F0704225
:100770000868401E4E68761E40EA06168868401ECD
:1007800046EA0026C868401E46EA0036088A401E2F
:1007900046EA0046888A401E46EA0056087E401E09
:1007A00046EA006002439A6022E09A6811480240DB
:1007B000C868401E0603888A401E46EA005002436D
:1007C000DC6804F070440868401E4E68761E40EAFB
:1007D00006168868401E46EA0026088A401E46EA39
:1007E0000046087E401E46EA006004439A60DC60D2
:1007F000002070BDFF0F0FFF2DE9FC41002000908D
:10080000019000243548007800EB4000344931F86D
:1008100010503248007800EB400001EB4000468861
:1008200000272E48007800EB400001EB4000808854
:10083000401C000A8DF800002848007800EB4000BA
:1008400001EB40000079401CC0B28DF80100062287
:100850006946BA2000F064F80446002C02DA002051
:10086000BDE8FC819DF802009DF8031000EB01201B
:1008700085B29DF804009DF8051000EB012086B2BA
:100880001648007800EB4000154901EB40008088D5
:10089000801D000A8DF800001048007800EB400031
:1008A00001EB40000079801DC0B28DF801000322E9
:1008B0006946BA2000F034F80446002C01DA002022
:1008C000CEE79DF8020000F003073B46324629467A
:1008D00004A004F0C7FC0120C2E70000DC020020F5
:1008E000CA3B01083C3C2D4754502D494E464F2DE4
:1008F0003E3E20585F4D4158203D2025642C205914
:100900005F4D4158203D2025642C205452494747D3
:100910004552203D203078253032780A0000000012
:100920002DE9F04186B005460C4616464FF0FF37DC
:100930004FF0000800BF00BF0020ADF802008DF8A6
:1009400000500220ADF8040002940121ADF80E1011
:100950008DF80C50B01E81B2ADF81010A01C05909F
:1009600009E00221684602F071FE0746022F00D11D
:1009700004E008F10108B8F1050FF2DB00BFB8F19F
:10098000050F08DB6078237840EA0321B21E3B465E
:10099000034804F067FC384606B0BDE8F08100006B
:1009A000F460010838B5002000901748007800EB8B
:1009B0004000164901EB4000808800128DF80000CD
:1009C0001148007800EB400001EB400000798DF801
:1009D000010000256C1E00BF00BF0DE00322694628
:1009E000BA20FFF79DFF44B2002C01DD204638BD40
:1009F000294607A004F036FC2846691CCDB205281C
:100A0000ECDB2046F3E70000DC020020CA3B0108D3
:100A10003C3C2D4754502D4552524F522D3E3E20C6
:100A2000475450206932632074657374206661698D
:100A30006C65642074696D652025642E0A000000D1
:100A40002DE9FE4380460C4615464FF0FF36002741
:100A500000BF00BF0020ADF802008DF80080A8B2F2
:100A6000ADF80400029408E00121684602F0EEFDB2
:100A70000646012E00D102E07F1C052FF4DB00BFEB
:100A8000052F08DB6078237840EA0321AA1E33464D
:100A9000024804F0E7FB3046BDE8FE8344610108EC
:100AA00010B54FF0FF3400BF00BF02F0C5FDFFF7E7
:100AB00079FF0446002C04DA06A004F0D3FB20469C
:100AC00010BD00F01DF802F0FBFBFFF795FE0020C3
:100AD000F6E700003C3C2D4754502D4552524F52F2
:100AE0002D3E3E2049324320636F6D6D756E696304
:100AF0006174696F6E204552524F52210A00000006
:100B000010B586B04FF0FF34804903C9CDE9040128
:100B100000BF00BF082204A9BA20FFF701FF044666
:100B2000002C05DA7AA004F09DFB204606B010BD2B
:100B30009DF81400312831D19DF8120039281AD1BE
:100B40009DF81300312816D19DF81400312812D1D8
:100B50009DF816009DF81710CDE900109DF814308F
:100B60009DF813209DF8121074A004F07BFB012067
:100B70007E490870C8E09DF816009DF817109DF892
:100B80001520CDE9002102909DF814309DF8132026
:100B90009DF8121076A004F065FBB5E09DF81400F6
:100BA000352838D19DF81200392821D19DF813003D
:100BB00031281DD19DF81400352819D19DF8150054
:100BC000372815D19DF816009DF817109DF81520AF
:100BD000CDE9002102909DF814309DF813209DF876
:100BE000121071A004F03EFB0020604908708BE0F9
:100BF0009DF816009DF817109DF81520CDE90021ED
:100C000002909DF814309DF813209DF8121058A002
:100C100004F028FB78E09DF81400382838D19DF8BE
:100C20001200352821D19DF8130036281DD19DF8DA
:100C30001400382819D19DF81500382815D19DF8D1
:100C400016009DF817109DF81520CDE9002102909F
:100C50009DF814309DF813209DF812105EA004F04A
:100C600001FB0220414908704EE09DF816009DF8F6
:100C700017109DF81520CDE9002102909DF8143041
:100C80009DF813209DF8121039A004F0EBFA3BE018
:100C90009DF81400372825D19DF816009DF81710EF
:100CA0009DF81520CDE9002102909DF814309DF8A3
:100CB00013209DF812103CA004F0D4FA9DF8120005
:100CC000392821D19DF8130031281DD19DF8140039
:100CD000372819D19DF81500532815D10320234931
:100CE000087011E09DF816109DF817009DF815206A
:100CF000CDE9002002919DF814309DF813209DF855
:100D000012101BA004F0AEFA20460FE7C03C010809
:100D10003C3C2D4754502D4552524F522D3E3E20C3
:100D200047545020726561642076657273696F6EF6
:100D3000206661696C65640A000000003C3C2D4738
:100D400054502D494E464F2D3E3E204943312056AA
:100D5000657273696F6E3A202563256325635F258D
:100D6000303278253032780A00000000DC020020A2
:100D70003C3C2D4754502D494E464F2D3E3E20556C
:100D80006E6B6E6F776E2049432056657273696F84
:100D90006E3A2025632563256325635F253032780D
:100DA000253032780A0000003C3C2D4754502D4934
:100DB0004E464F2D3E3E20494332205665727369A0
:100DC0006F6E3A2025632563256325635F253032E6
:100DD00078253032780A00003C3C2D4754502D498C
:100DE0004E464F2D3E3E204943332056657273696F
:100DF0006F6E3A2025632563256325635F253032B6
:100E000078253032780A000010B500BF00BF00F02E
:100E100079F810BD2DE9FC4104460D4616461F46E3
:100E200001200E49087100BF00BF00BF2B462246BB
:100E30004FF4C7710AA0CDE9006704F013FA00BFB0
:100E400028B2134921F8140030B2124921F81400D5
:100E500002490D804E80BDE8FC810000F2020020B6
:100E60003C3C2D4754502D44454255472D3E3E2095
:100E70005B25645D49443A25642C20583A25642C4E
:100E800020593A25642C20573A25640A00000000B6
:100E9000DE020020E802002010B5044600200B49C5
:100EA0000871401E0A4921F814000A4921F814006B
:100EB000002006490880488000BF224640F2B31156
:100EC00005A004F0CFF900BF10BD0000F202002021
:100ED000DE020020E80200203C3C2D4754502D4407
:100EE000454255472D3E3E205B25645D546F75633A
:100EF000682069645B2532645D2072656C6561738E
:100F000065210A002DE9F04F99B05FA000681890A4
:100F100028210EA8FFF7B0F95C4800680D90002565
:100F2000A8464FF0BA0B002600200C900B900A90B8
:100F3000814600244FF0FF3A00BF00BF0C220DA9EC
:100F40005846FFF7EDFC8246BAF1000F06DA51462B
:100F50004FA004F087F919B0BDE8F08F9DF83680F6
:100F6000B8F1000F00D1F6E708F0800000B97CE08E
:100F700008F00F05052D00DD77E0012D17DD242198
:100F800001A8FFF779F94148001D00680090681E2C
:100F9000C000821C69465846FFF7C2FC8246681EA4
:100FA000C2000DF1020110A8FFF74DF900BF44483F
:100FB0000088A84221DD00241BE0002715E0032063
:100FC00000EBC7000DA94618307800F00F093D4826
:100FD000005D484500D10AE0681EB84203DC39498B
:100FE000085DFFF759FF781CC7B2AF42E7DB00BFCF
:100FF000641C334800888442DFDB2DB3002420E0EA
:10100000032000EBC4000DA94618307800F00F094A
:101010002C4800F804907078B17840EA01200C90D8
:10102000F078317940EA01200B907079B17940EA8B
:1010300001200A904846DDE90A320C99FFF7EAFEE2
:10104000641CAC42DCDB0DE01D48008850B100247C
:1010500004E01C49085DFFF71FFF641C1848008866
:101060008442F6DB1648058000BF032218A95846C3
:10107000FFF7E6FC8246BAF1000F02DA12A004F094
:10108000F1F800BF67E70000814E0000643C0108F2
:101090003C3C2D4754502D4552524F522D3E3E2040
:1010A000493243207472616E736665722065727294
:1010B0006F722E206572726E6F3A25640A200A00E4
:1010C000F8020020FA0200203C3C2D4754502D49E4
:1010D0004E464F2D3E3E204932432077726974655B
:1010E00020656E645F636D64206572726F72210AA1
:1010F0000000000070B502460C465068B0F5403F55
:1011000002D0506800B100BF00BF92F8380001283B
:1011100001D1022070BD012082F8380000BF0220FA
:1011200082F8390002F1180000EB04110E894868BA
:1011300040EA0643214D48680A2802D04868092839
:1011400004D1C86800F07F40034302E0087B43EA13
:101150000063A4B91068406AA84318431668706217
:1011600008681668B06148680A2802D048680928EB
:1011700019D1C86820F07F401668B06213E010688B
:10118000C069A84318431668F061086816683061A2
:1011900048680A2802D04868092804D1C86820F0A5
:1011A0007F4016683062012082F8390000BF0020BD
:1011B00082F8380000BF00BFACE700000F0003FF5B
:1011C00010B504460CB9012010BD94F8390028B9B7
:1011D000002084F83800204600F022F8022084F82D
:1011E00039002068006820F44030616808432168B5
:1011F00008602068406B20F00700A1680843216860
:1012000048632068006C6FF30D00E16808432168B3
:1012100008640020E063012084F839000020D3E74F
:101220007047F8B504460D4600200090206800681D
:1012300000F00100002843D000F06CFA064639E0C7
:10124000206840680090009800F02100E0B100980C
:1012500000F0200018B1E06B40F00200E06300985D
:1012600000F0010018B1E06B40F00100E0632120C4
:1012700021688860042084F8390000BF002084F8C9
:10128000380000BF0120F8BD681C98B100F042FA98
:10129000801BA84200D86DB9E06B40F02000E063ED
:1012A000032084F8390000BF002084F8380000BF14
:1012B0000320E8E72068406800F002000028BFD063
:1012C0002068C06900F020072068406A00F0200014
:1012D0000743002F4BD000F01DFA064641E020687E
:1012E00040680090009800F0290020B3009800F0BA
:1012F000080018B1E06B40F00400E063009800F0D3
:10130000200018B1E06B40F00200E063009800F0AC
:10131000010018B1E06B40F00100E0632920216872
:101320008860042084F8390000BF002084F8380069
:1013300000BF0120A7E7681C98B100F0EBF9801B03
:10134000A84200D86DB9E06B40F02000E0630320B4
:1013500084F8390000BF002084F8380000BF032063
:1013600091E72068406800F010000028B7D01220F4
:1013700021688860012084F8390000BF002084F8CB
:10138000380000BF00BF7EE72DE9F84304460D4654
:1013900016461F46DDF8208000BF94F8380001286B
:1013A00002D10220BDE8F883012084F8380000BF94
:1013B000022084F839003B46324629462046CDF8C3
:1013C0000080FFF761F82068006840F001002168A4
:1013D00008600020E6E700002DE9F0410446002502
:1013E00000F098F9074614B90120BDE8F081606A61
:1013F00000B100BF00BF002084F8340000BF02200D
:1014000084F835002068006820F001002168086039
:101410000AE000F07FF9C01B052805D9202060658F
:10142000032084F83500E0E72068006800F0010040
:101430000028EED12068056821480540D4E9010163
:101440000843E16808432169084361690843A169C9
:101450000843E1690843216A08430543606A042898
:1014600003D1D4E90B0108430543206805602068D7
:10147000456925F00705606A0543606A04280DD1B7
:10148000A06A0543E06A48B12046FFF78BF828B10F
:1014900040206065012084F83500A6E7206845619A
:1014A0002046FFF765F8064694F85C103F20884018
:1014B000B06000206065012084F83500002094E7CA
:1014C0003F8010F070B5044600F024F9064625462A
:1014D000681C10B104480078054400BF00F01AF9F8
:1014E000801BA842FAD370BD08000020F8B5024660
:1014F0000B460025002400200021E6E0012606FA24
:1015000001F51E6806EA0504AC4273D15E68012E3F
:1015100008D05E68022E05D05E68112E02D05E688B
:10152000122E13D190684F000326BE40B0434F00E7
:10153000DE68BE4030439060506801268E40B04364
:101540001E79C6F300168E4030435060D0684F00BD
:101550000326BE40B0434F009E68BE403043D0607B
:101560005E68022E02D05E68122E13D1CF0802F1FF
:10157000200656F827004E07F70E0F26BE40B04350
:101580004F07FF0E1E69BE403043CF0802F1200610
:1015900046F8270010684F000326BE40B0431E796E
:1015A00006F003064F00BE40304310605E6806F050
:1015B0008056B6F1805FA8D100BF00260096454E48
:1015C000366846F48046434F3E603E46366806F431
:1015D0008046009600BF00BF3F4E8F0856F8270098
:1015E0008E07370F0F26BE40B0433C4EB24202D1A9
:1015F00000262EE068E03A4EB24201D1012628E0F2
:10160000384EB24201D1022623E0374EB24201D118
:1016100003261EE0354EB24201D1042619E0344EB5
:10162000B24201D1052614E0324EB24201D1062663
:101630000FE0314EB24201D107260AE02F4EB242EE
:1016400001D1082605E02E4EB24201D1092600E064
:101650000A268F073F0FBE4030431F4E8F0846F8C3
:101660002700284E3068A0435E6806F48036B6F541
:10167000803F00D12043234E3060361D3068A043A8
:101680005E6806F40036B6F5003F00D120431D4EDB
:10169000361D3060361D3068A0435E6806F4801643
:1016A000B6F5801F00D12043164E08363060361D37
:1016B0003068A0435E6806F40016B6F5001F00D13E
:1016C0002043104E0C363060491C1029FFF416AF31
:1016D000F8BD0000443802400838014000000240D4
:1016E0000004024000080240000C024000100240CA
:1016F0000014024000180240001C0240002002407A
:1017000000240240003C01400AB1816101E00B0469
:1017100083617047014800687047000000000020A6
:10172000024692F83D0020281ED1242082F83D0078
:101730001068006820F00100136818601068406AA3
:1017400020F01000136858621068406A084313685C
:1017500058621068006840F001001368186020208B
:1017600082F83D00002070470220FCE770B5044677
:101770000CB9012070BD94F83D0028B9002084F810
:101780003C00204600F00EFB242084F83D00206839
:10179000006820F00100216808602068006840F4BB
:1017A0000040216808602068006820F4004021683B
:1017B000086000F0AFFF05465C496068884206D8C3
:1017C0005B48854201D2012007E0002005E059482E
:1017D000854201D2012000E00020012800D1C9E7A4
:1017E0005548B5FBF0F62068406820F03F003043D4
:1017F000216848604D496068884201D8701C07E044
:101800004FF4967070434FF47A71B0FBF1F0401CC6
:101810002168096A21F03F010843216808624349B1
:101820006068884214D8681E61684900B0FBF1F016
:10183000401CC0F30B00042801D204203DE0681EC8
:1018400061684900B0FBF1F0401CC0F30B0034E0CC
:10185000A06838B9681E616801EB4101B0FBF1F086
:10186000401C0AE0681E616801EBC10202EB011135
:10187000B0FBF1F0401C40F48040C0F30B0008B90D
:1018800001201AE0A06848B9681E616801EB4101B7
:10189000B0FBF1F0401CC0F30B000CE0681E616867
:1018A00001EBC10202EB0111B0FBF1F0401CC0F3EF
:1018B0000B0040F4804040F400402168C9694CF6B8
:1018C000FF72914308432168C861D4E907010843C6
:1018D0002168096821F0C001084321680860D4E943
:1018E000031008432168896848F2FF329143084396
:1018F00021688860D4E9050108432168C96821F09E
:10190000FF0108432168C8602068006840F00100BA
:101910002168086000202064202084F83D00002019
:10192000206384F83E0000BF24E70000A086010089
:1019300080841E0000093D0040420F002DE9F8435D
:101940000446894617469846089EFFF7E3FE05467B
:1019500094F83D0020287DD119230122B249204668
:10196000009501F0E0FE10B10220BDE8F88300BF51
:1019700094F83C00012801D10220F6E7012084F808
:101980003C0000BF2068006800F0010028B9206812
:10199000006840F00100216808602068006820F4B9
:1019A000006021680860222084F83D00102084F83F
:1019B0003E00002020646762A4F82A80608D2085A4
:1019C0009A48E0622B4632464946204601F0C6FC62
:1019D00008B10120C9E7208D88B900BF0020009020
:1019E00020684069009020688069009000BF00BFB7
:1019F0002068006840F400702168086047E0208D8E
:101A0000012817D12068006820F4806021680860F0
:101A100000BF002000902068406900902068806925
:101A2000009000BF00BF2068006840F4007021688B
:101A300008602CE0208D022818D12068006820F46E
:101A40008060216808602068006840F400602168B8
:101A5000086000E0E6E000BF0020009020684069D8
:101A6000009020688069009000BF10E02068006846
:101A700040F480602168086000BF0020009020686A
:101A80004069009020688069009000BF00BFBAE004
:101A9000208D03287ED8208D012815D12A46314675
:101AA000204601F0E5FE08B101205EE720680069EC
:101AB000616A0870606A401C6062208D401E20854B
:101AC000608D401E60859EE0208D02282AD133461D
:101AD000002257492046009501F025FE08B101205B
:101AE00043E72068006840F40070216808602068BF
:101AF0000069616A0870606A401C6062208D401E47
:101B00002085608D401E608520680069616A0870CC
:101B1000606A401C6062208D401E2085608D401EE2
:101B2000608570E03346002241492046009501F06F
:101B3000FAFD08B1012018E72068006820F48060F1
:101B40002168086020680069616A0870606A401C4A
:101B50006062208D401E2085608D401E608533466A
:101B6000002233492046009501F0DDFD08B1012037
:101B7000FBE62068006840F4007021680860206877
:101B80000069616A0870606A401C6062208D401EB6
:101B9000208500E010E0608D401E608520680069AF
:101BA000616A0870606A401C6062208D401E20855A
:101BB000608D401E608526E02A463146204601F0B1
:101BC00057FE08B10120D0E620680069616A0870FC
:101BD000606A401C6062208D401E2085608D401E22
:101BE000608520684069C0F3800060B120680069AA
:101BF000616A0870606A401C6062208D401E20850A
:101C0000608D401E6085208D00287FF441AF20202C
:101C100084F83D00002084F83E0000BF84F83C00BA
:101C200000BFA2E60220A0E6020010000000FFFFB5
:101C3000040001002DE9F8430446894616461F4674
:101C4000DDF82080FFF766FD054694F83D0020286A
:101C50007ED11923012251492046009501F063FDF0
:101C600010B10220BDE8F88300BF94F83C000128C1
:101C700001D10220F6E7012084F83C0000BF206873
:101C8000006800F0010028B92068006840F00100F9
:101C9000216808602068006820F4006021680860FE
:101CA000212084F83D00102084F83E0000202064AC
:101CB00066626785608D20853948E0622B46424622
:101CC0004946204601F0E2FB08B10120CAE700BF07
:101CD0000020009020684069009020688069009092
:101CE00000BF00BF44E02A464146204601F000FE06
:101CF00050B1206C042805D12068006840F40070C1
:101D0000216808600120ADE7606A007821680861F9
:101D1000606A401C6062608D401E6085208D401EA0
:101D2000208520684069C0F3800070B1208D60B1CB
:101D3000606A007821680861606A401C6062608D9A
:101D4000401E6085208D401E20852A46414600E0C9
:101D500022E0204601F0B9FC50B1206C042805D1E6
:101D60002068006840F4007021680860012079E76D
:101D7000208D0028B7D12068006840F400702168E9
:101D80000860202084F83D00002084F83E0000BF59
:101D900084F83C0000BF65E7022063E70200100002
:101DA0000000FFFF704700000348006803490978FE
:101DB0000844014908607047000000200800002026
:101DC00010B50D48006840F400700B4908600846E3
:101DD000006840F4806008600846006840F4807045
:101DE0000860032000F0D0F9002000F007F800F0B0
:101DF00037F9002010BD0000003C024070B588B0EB
:101E000004460025002600222146362000F07EF9F7
:101E1000362000F06BF900BF0020019016480068E2
:101E200040F01000144908600846006800F01000F7
:101E3000019000BF00BF02A903A800F043FC00F01E
:101E400069FC45000D48B5FBF0F0461E0C480D49F5
:101E5000086040F2E7310B48C16046600021016133
:101E6000816000F067FF20B9064800F07EFF08B0EF
:101E700070BD0120FBE700004038024040420F00E7
:101E800000100040E00F002070B504460E461546D5
:101E900000BF94F8A000012801D1022070BD0120EC
:101EA00084F8A00000BF022084F8A10005EB8501A2
:101EB00001EBC50204F1380101EB82003422314606
:101EC000FEF7C1F92A463146204602F063F90120A7
:101ED0002168486284F8A10000BF002084F8A000B7
:101EE00000BF00BFDAE7000070B504460CB901205E
:101EF00070BD94F8A10028B9002084F8A000204605
:101F000000F07EF8022084F8A1002068806920F0AB
:101F1000704021688861D4E901010843E168084301
:101F2000216908432168896908432168886120681C
:101F300080683249084021688860A08A05042068CA
:101F40008068A16929430843216888602068C068C7
:101F50002A4908402168C860A08B05042068C06831
:101F6000216A294308432168C86020680069234921
:101F7000084021680861A08C050420680069A16AF6
:101F80002943084321680861206840691B490840CB
:101F900021684861A08D050420684069216B2943B0
:101FA00008432168486194F83500050294F836002A
:101FB00006042068C06A00F07F402168C86246EAD3
:101FC000050094F8341008432168C96A0843216861
:101FD000C8622068406B40F00600216848632068B2
:101FE000806940F00100216888610020C4F8A400E5
:101FF000012084F8A10000207AE7000000F800F03A
:1020000070472DE9F04104460E46174600BF94F88C
:10201000A000012802D10220BDE8F081012084F84F
:10202000A00000BF022084F8A10007EB870000EBAE
:10203000C70104F1380000EB81056E613A4629467C
:10204000204602F0A7F801202168486284F8A10028
:1020500000BF002084F8A00000BF00BFDCE7000044
:1020600008B500BF002000900E48006840F4804092
:102070000C4908600846006800F48040009000BFEA
:1020800000BF00BF00200090081F006840F0805093
:10209000091F08600846006800F08050009000BFEB
:1020A00000BF08BD4438024010B50146084600286C
:1020B00017DB00F01F0301229A400B4B440943F841
:1020C000242000BF00BF00BFBFF34F8F00BF00BF81
:1020D00000BF00BF00BF00BFBFF36F8F00BF00BFD6
:1020E00000BF00BF10BD000080E100E001460846CF
:1020F000002809DB00F01F0301229A4043099B00DE
:1021000003F1E023C3F8002100BF70472DE9F05F21
:1021100080460D461646002703F0B4F807463946B8
:102120002A46334601F00700C0F1070ABAF1040F4E
:1021300002D94FF0040A01E0C0F1070AD14600F1CC
:10214000040ABAF1070F02D24FF0000A01E0A0F131
:10215000030AD4464FF0010A0AFA09FAAAF1010A61
:102160000AEA020A0AFA0CFA4FF0010B0BFA0CFB0E
:10217000ABF1010B0BEA030B4AEA0B042146404684
:1021800003F088F8BDE8F09F00BF00F00702064B9F
:1021900019684FF6FF031940044B0B4343EA022131
:1021A000014B196000BF70470CED00E00000FA051C
:1021B00038B5002400BF002000901D48006840F0A2
:1021C00080501B4908600846006800F0805000906D
:1021D00000BF00BF012017490864FFF79BFA0446BF
:1021E00007E0FFF797FA001BB0F57A7F01D90320CB
:1021F00038BD1148406800F48030B0F5803FF0D120
:1022000001200C494864FFF785FA044607E0FFF710
:1022100081FA001BB0F57A7F01D90320E8E7064870
:10222000406800F40030B0F5003FF0D10020DFE757
:102230004038024000000E4200700040F8B50446ED
:1022400000250026207800F0010048B9207800F031
:102250000200022804D0207800F04000402862D11B
:102260000020B1498866FFF755FA054606E0FFF7FA
:1022700051FA401B022801D90320F8BDAB48006881
:10228000C0F3C0600028F2D1207800F0010038B11E
:1022900060688101207A41EA0070A44984310860B5
:1022A000207800F00200022819D1A048843000688C
:1022B000C0F3027660688101207B41EA006040EA59
:1022C00006709A498431086098488C30006820F084
:1022D0001F00E169491E084394498C310860207849
:1022E00000F0400040280AD160688101207B41EA6B
:1022F0000061207A41EA00708C4984310860012035
:1023000089498866FFF706FA054606E0FFF702FAF4
:10231000401B022801D90320AFE784480068C0F3BE
:10232000C0600028F2D0207800F00400042804D017
:10233000207800F00800082863D100207A49086757
:10234000FFF7E8F9054606E0FFF7E4F9401B02282D
:1023500001D9032091E775480068C0F34070002858
:10236000F2D1207800F00400042819D16F48883099
:102370000068C0F3027620698101207D41EA006097
:1023800040EA0670694988310860081D006820F439
:10239000F851206A401E41EA002064498C310860EF
:1023A000207800F00800082817D1604888300068BD
:1023B000C0F303662069800140EA0661207E41EA9D
:1023C00000705A4988310860081D006820F44030C8
:1023D000616A084355498C310860012052490867F9
:1023E000FFF798F9054606E0FFF794F9401B02282D
:1023F00001D9032041E74D480068C0F34070002830
:10240000F2D0207800F0200020287DD100BF0020ED
:10241000009046484030006840F0805043494031C9
:1024200008600846006800F08050009000BF00BFC0
:102430003F48006840F480703D490860FFF76AF942
:10244000054606E0FFF766F9401B022801D9032084
:1024500013E73748006800F480700028F2D0334852
:102460007030006800F440764EB3208D00F4407068
:10247000B04224D02D487030006820F4407601200E
:102480002C49086000200860284870300660006809
:1024900000F0010098B1FFF73DF9054608E0FFF7AD
:1024A00039F9401B41F28831884201D90320E4E622
:1024B0001E4870300068C0F340000028EFD000BF15
:1024C000208D00F44070B0F5407F0CD117480830E3
:1024D000006820F4F810184AA16A11400843134913
:1024E0000831086007E011480830006820F4F8104F
:1024F0000E49083108600D4870300068218DC1F325
:102500000B010843094900E002E07031086000BF98
:10251000207800F01000102803D194F82C0007490F
:1025200008600020A9E60000000047420038024091
:1025300000700040400E4742FFFCFF0FE011474291
:1025400070B504460D460CB9012070BD58480068AE
:1025500000F00F00A84209D255490D7008460068E6
:1025600000F00F00A84201D00120EEE7207800F033
:10257000020002281DD1207800F00400042805D1B3
:102580004C48006840F4E0504A490860207800F068
:102590000800082805D14748006840F460404549D4
:1025A00008604448006820F0F000A16808434149F1
:1025B0000860207800F00100A8B36068012807D106
:1025C0003C4808380068C0F34040B8B90120BCE777
:1025D0006068022802D06068032807D135480838AF
:1025E0000068C0F3406048B90120AEE731480838C0
:1025F0000068C0F3400008B90120A6E72D48006834
:1026000020F00300616808432A490860FFF782F858
:10261000064609E0FFF77EF8801B41F288318842C8
:1026200002D9032091E707E02248006800F00C007F
:102630006168B0EB810FEDD11D48006800F00F001C
:10264000A84209D91A490D700846006800F00F0029
:10265000A84201D0012078E7207800F00400042887
:1026600007D11448006820F4E050E168084311499C
:102670000860207800F00800082808D10D4800689C
:1026800020F46040216940EAC1000A49086000F076
:1026900061F808490968C1F30311074A515CC84051
:1026A0000649086006480068FFF7A8FB00204CE7D1
:1026B000003C0240083802401AFE00080C000020CE
:1026C000040000200F2202600D4A126802F003028B
:1026D00042600B4A126802F0F0028260084A1268F7
:1026E00002F4E052C260064A126802F46042D20864
:1026F0000261044A126802F00F020A60704700008B
:1027000008380240003C0240014800687047000061
:102710000C00002000B5FFF7F7FF04490968C1F37A
:102720008221034A515CC84000BD000008380240C5
:102730002AFE000800B5FFF7E7FF04490968C1F366
:102740004231034A515CC84000BD000008380240D5
:102750002AFE00082DE9F047002400250026A146A6
:102760002548006800F00C0020B1042805D0082896
:102770003AD105E0DFF8849039E0DFF8849036E064
:102780001D48001F006800F03F041B48001F006840
:1027900000F4800078B11A481749091F0968C1F38D
:1027A0008811A0FB01700146224600233846FDF740
:1027B00019FD05460EE011480F49091F0968C1F3CC
:1027C0008811A0FB01700146224600233846FDF720
:1027D00009FD05460848001F0068C0F30140401C81
:1027E0004600B5FBF6F902E0DFF8109000BF00BF2D
:1027F0004846BDE8F0870000083802400024F40095
:1028000040787D01F8B504460CB90120F8BD207868
:1028100000F00100002874D0F948006800F00C00B6
:1028200004280DD0F648006800F00C00082813D1E9
:10283000F348001F006800F48000B0F5800F0BD152
:10284000EF4808380068C0F34040002859D060685D
:10285000002856D10120D9E700BF6068B0F5803F5D
:1028600008D1E7480838006840F48030E449083966
:1028700008601EE06068B0F5A02F0DD1E048083870
:10288000006840F48020DE49083908600846006886
:1028900040F4803008600CE0D9480838006820F423
:1028A0008030D749083908600846006820F4802045
:1028B000086000BF606890B1FEF72CFF054606E097
:1028C000FEF728FF401B642801D903209EE7CC486F
:1028D00008380068C0F340400028F1D011E0FEF74E
:1028E00019FF054606E0FEF715FF401B642801D9D5
:1028F00003208BE7C24808380068C0F34040002836
:10290000F1D1207800F0020002285FD1BC480068B5
:1029100000F00C0058B1BA48006800F00C0008281C
:102920001CD1B748001F006800F48000B0B9B4485B
:1029300008380068C0F3400020B1E068012801D0E9
:10294000012063E7AE480838006820F0F8002169EC
:1029500040EAC100AA490839086037E0E06800B3DE
:102960000120A8490860FEF7D5FE054606E0FEF7FF
:10297000D1FE401B022801D9032047E7A0480838B0
:102980000068C0F340000028F1D09D480838006876
:1029900020F0F800216940EAC1009949083908602F
:1029A00014E0002097490860FEF7B4FE054606E0F3
:1029B000FEF7B0FE401B022801D9032026E790480D
:1029C00008380068C0F340000028F1D1207800F0FA
:1029D000080008282CD16069A8B101208A49086044
:1029E000FEF798FE054606E0FEF794FE401B02281F
:1029F00001D903200AE782486C300068C0F3400028
:102A00000028F1D014E000207F490860FEF782FE24
:102A1000054606E0FEF77EFE401B022801D9032092
:102A2000F4E677486C300068C0F340000028F1D12C
:102A3000207800F00400042870D100277048383056
:102A4000006800F0805090B900BF002000906C48F2
:102A50003830006840F080506949383108600846D5
:102A6000006800F08050009000BF00BF0127674859
:102A7000006800F48070B0B96448006840F4807069
:102A800062490860FEF746FE054606E0FEF742FE94
:102A9000401B022801D90320B8E65C48006800F416
:102AA00080700028F2D000BFA068012808D15448E7
:102AB0006830006840F001005149683108601DE04D
:102AC000A06805280DD14E486830006840F0040029
:102AD0004B49683108600846006840F00100086012
:102AE0000CE047486830006820F001004449683134
:102AF00008600846006820F00400086000BFA06875
:102B0000A8B1FEF707FE054609E0FEF703FE401BED
:102B100041F28831884202D9032077E626E038481E
:102B200068300068C0F340000028EED013E0FEF7E4
:102B3000F1FD054608E0FEF7EDFD401B41F288314E
:102B4000884201D9032061E62D4868300068C0F34F
:102B500040000028EFD1012F07D129483830006804
:102B600020F0805026493831086000BFA069002855
:102B700045D02348006800F00C0008285DD0A0690B
:102B8000022845D100201F490866FEF7C3FD05460F
:102B900006E0FEF7BFFD401B022801D9032035E601
:102BA000174808380068C0F340600028F1D1D4E924
:102BB00007010843616A40EA81110122A06AC2EB61
:102BC000500041EA00412C20005D41EA00600C49C0
:102BD000091F086001200B490866FEF79BFD0546AA
:102BE00006E0FEF797FD401B022801D903200DE601
:102BF000034808380068C0F340600028F1D03FE087
:102C00000838024000004742800E474200700040F2
:102C100000201C490866FEF77DFD054606E0FEF72C
:102C200079FD401B022801D90320EFE51648006812
:102C3000C0F340600028F2D122E0A069012800D151
:102C4000E4E51148001D066806F48001E069814250
:102C500014D106F03F01206A81420FD147F6C070BF
:102C60003040616A884209D106F44031A06A81424D
:102C700004D106F07061E06A814201D00120C5E50F
:102C80000020C3E5000047420038024070B504460A
:102C90000D460CB9012070BD94F82C0028B9002015
:102CA00084F82D00204600F011F8022084F82C0052
:102CB000211D2068FDF7E7FC2946D4E90002FDF755
:102CC0004DFD012084F82C000020E4E7704770B52A
:102CD00004460D4694F82C00022800D170BD022055
:102CE00084F82C0029462068FDF707FD012084F8B0
:102CF0002C000020F2E770B504460D46164694F805
:102D00002C00022800D170BD022084F82C0032462D
:102D100029462068FDF7F8FC2868022803D1052021
:102D200084F82C0002E0012084F82C000020EAE75F
:102D30007047704710B504460CB9012010BD94F8D7
:102D40003D0028B9002084F83C00204600F00CF833
:102D5000022084F83D00211D206801F0EBFF0120D6
:102D600084F83D000020E9E7704701460868C06824
:102D700040F001000B68D8600868806800F0070226
:102D8000062A05D00868006840F001000B6818604A
:102D900000207047704710B5044620680069C0F3F2
:102DA0004000D8B12068C068C0F34000B0B16FF0F7
:102DB000020021680861012020772068806900F006
:102DC000030018B12046FFF7E5FF05E0204600F0BC
:102DD000ADF8204600F0ABF80020207720680069AD
:102DE000C0F38000D8B12068C068C0F38000B0B1E3
:102DF0006FF0040021680861022020772068806954
:102E000000F4407018B12046FFF7C4FF05E02046EB
:102E100000F08CF8204600F08AF800202077206827
:102E20000069C0F3C000D8B12068C068C0F3C0001A
:102E3000B0B16FF008002168086104202077206895
:102E4000C06900F0030018B12046FFF7A3FF05E0BA
:102E5000204600F06BF8204600F069F8002020774B
:102E600020680069C0F30010D8B12068C068C0F3C2
:102E70000010B0B16FF010002168086108202077C1
:102E80002068C06900F4407018B12046FFF782FF47
:102E900005E0204600F04AF8204600F048F80020FF
:102EA00020772068006900F0010058B12068C068F0
:102EB00000F0010030B16FF0010021680861204688
:102EC00000F036F820680069C0F3C01058B12068DF
:102ED000C068C0F3C01030B16FF080002168086195
:102EE0002046FFF725FF20680069C0F3801058B125
:102EF0002068C068C0F3801030B16FF040002168D6
:102F00000861204600F022F820680069C0F34010F4
:102F100058B12068C068C0F3401030B16FF0200095
:102F2000216808612046FFF704FF10BD7047704715
:102F300010B5044604492068884204D1FEF734FFE6
:102F400001200CF05DFA10BD00100040704710B574
:102F500004460CB9012010BDA06900B100E000BF1B
:102F600094F8390028B9002084F83800204600F091
:102F700027F8242084F839002068C06820F4005025
:102F80002168C860204601F041FF2068006920F4F4
:102F90009040216808612068406920F02A0021687B
:102FA00048612068C06840F400502168C860002073
:102FB000E063202084F8390084F83A000020CAE752
:102FC00010B586B00446142101A8FDF755F91B4938
:102FD0002068884230D100BF002000901848006867
:102FE00040F01000164908600846006800F0100024
:102FF000009000BF00BF00BF0020009010481438B0
:10300000006840F001000E49143908600846006865
:1030100000F00100009000BF00BF4FF4C0600190BD
:1030200002200290002003900320049007200590C6
:1030300001A90448FEF75AFA06B010BD001001407D
:1030400044380240000002402DE9F84304460D4692
:1030500016461F464FF0000994F8390020285DD12C
:1030600005B116B90120BDE8F88300BF94F8380017
:10307000012801D10220F6E7012084F8380000BFC2
:103080000020E063212084F83900FEF743FB8146ED
:10309000A684E68400BF002084F8380000BF2BE03F
:1030A000E08C401EE084A068B0F5805F16D14B46EE
:1030B000002280212046009702F09CF808B10320EE
:1030C000D1E7A846B8F80000C0F3080021684860BE
:1030D000206908B9AD1C0FE06D1C0DE04B460022C5
:1030E00080212046009702F085F808B10320BAE756
:1030F00015F8010B21684860E08C0028D0D14B46C0
:10310000002240212046009702F074F808B1032005
:10311000A9E7202084F839000020A4E70220A2E7D4
:1031200000BF572102A002F09DF800BF00BFFEE7DC
:103130003C3C2D44454255472D3E3E205B25645D79
:10314000656E74657220486172644661756C745F67
:1031500048616E646C65720D0A00000000B587B0AE
:1031600000BF002001903E48006840F480003C49C8
:1031700008600846006800F48000019000BF00BFAE
:1031800000BF0020019036481038006840F08000F1
:103190003349103908600846006800F0800001904B
:1031A00000BF00BF00BF002001900846006840F04B
:1031B000800008600846006800F08000019000BFB1
:1031C00000BF00BF002001900846006840F00800E2
:1031D00008600846006800F00800019000BF00BFCA
:1031E00000BF002001900846006840F00800086019
:1031F0000846006800F00800019000BF00BF1020E2
:1032000002901220039003200590002004900420D7
:10321000069002A91348FEF769F92020029002A93E
:103220001048FEF763F94FF400600290012003900C
:10323000032005900220049002A90B48FEF756F9DE
:103240004FF40050029001200390032005900220CB
:10325000049002A90448FEF749F907B000BD000038
:1032600040380240001C0240000C024000B587B00C
:1032700000BF002001901048006840F008000E498F
:1032800008600846006800F00800019000BF00BF19
:103290004FF40050029000200390049002A90748C8
:1032A000FEF724F9002202212820FEF72FFF282014
:1032B000FEF7FAFE07B000BD30380240000C0240B5
:1032C00000B587B000BF002001901148006840F0B1
:1032D00008000F4908600846006800F008000190E7
:1032E00000BF00BF4FF4005002900A480390002036
:1032F000049002A90848FEF7F9F8002202212820CC
:10330000FEF704FF2820FEF7F1FE07B000BD000025
:103310003038024000001110000C024001460868DD
:103320004069C0F38020B0B16FF480600A685061DA
:1033300000200863202081F83D00002081F83E0035
:10334000086C40F00400086400BF002081F83C00D5
:1033500000BF012070470020FCE700002DE9F84382
:1033600004460D4690461E46E76A2068006840F411
:10337000806021680860082F04D0012F02D017F563
:10338000803F06D12068006840F4807021680860A2
:1033900008E0206B112805D12068006840F4807097
:1033A00021680860434600224FF001112046009634
:1033B00000F0B9F950B12068006800F4807010B1D5
:1033C0004FF4007020640320BDE8F8832069B0F555
:1033D000804F05D1E8B240F001002168086147E064
:1033E00005F44070F02141EAE0102168086133469D
:1033F00042462549204600F0D9F908B10120E3E70B
:10340000E8B221680861334642461F49891F2046B9
:1034100000F0CCF908B10120D6E700BF00200090F1
:1034200020684069009020688069009000BF00BF5C
:103430002068006840F480702168086043460022DC
:103440004FF001112046009600F06DF948B1206858
:10345000006800F4807010B14FF400702064032005
:10346000B2E705F44070F12141EAE01021680861FB
:10347000334642460449891F204600F097F908B1B7
:103480000120A1E700209FE7080001002DE9F84393
:1034900004460D4617469846E66A082E04D0012ECB
:1034A00002D016F5803F06D12068006840F4807095
:1034B0002168086008E0206B122805D120680068A8
:1034C00040F48070216808603B4600224FF00111F3
:1034D0002046CDF8008000F026F950B12068006841
:1034E00000F4807010B14FF4007020640320BDE838
:1034F000F8832069B0F5804F04D105F0FE00216803
:10350000086112E005F44070F02141EAE010216802
:10351000086143463A460B49204600F047F908B196
:103520000120E4E7E8B22168086143463A460549CC
:10353000891F204600F03AF908B10120D7E70020A2
:10354000D5E700000800010010B50C480C490860E0
:1035500001140B4801610B480949486000210848E3
:1035600041618160C1610162C1608161FEF7FEF865
:1035700000210348FEF7D4F810BD000000580040B9
:1035800094110020E0930400F8B504460D46164659
:103590004FF47A7033462A46214600900448FEF7DD
:1035A000CDF907460FB90020F8BD0120FCE7000067
:1035B0009411002000B585B04FF400500090012018
:1035C0000190032003900220029069461848FDF7FD
:1035D0008DFF00224FF400511548FEF795F80022A8
:1035E0004FF400611248FEF78FF81248FDF730F8EB
:1035F0000A20FDF767FF0122D1020D48FEF784F88B
:103600000C48FDF725F80A20FDF75CFF4FF4005049
:103610000090002001900320039000200290694652
:103620000348FDF763FF5020FDF74CFF05B000BDD8
:10363000000C0240FFFF1F0010B5FFF78FFDFFF7E2
:1036400083FFFFF7B7FFFFF711FE10BD2DE9F04133
:1036500005460F460024002600BF00BF00BF2BE038
:1036600004EB440005EB8000807800F0010088B195
:1036700004EB440305EB83039A8804EB440305EB56
:103680008303996804EB440315F82300FFF77CFFDC
:10369000064610E004EB440305EB83031A7904EBC0
:1036A000440305EB8303996804EB440315F82300F6
:1036B00000F04CF90646641C0EB9BC42D0D116B1DC
:1036C0003046BDE8F0812046FBE770B504460D4664
:1036D000164620E02046FFF721FE08B1012070BD0C
:1036E000681CC0B1FEF716F8801BA84200D895B937
:1036F00000202063202084F83D00002084F83E0054
:10370000206C40F02000206400BF002084F83C00C2
:1037100000BF0120E3E720684069C0F38000002873
:10372000D8D00020DBE72DE9F04104460D461746CE
:103730001E46DDF818801CE0701CD0B1FDF7EAFFD2
:10374000A0EB0800B04200D89EB9002020632020E2
:1037500084F83D00002084F83E00206C40F02000FA
:10376000206400BF002084F83C0000BF0120BDE8B9
:10377000F081C5F3074001280AD120684069A9B249
:103780000840A9B2884201D101200BE0002009E0E5
:1037900020688069A9B20840A9B2884201D10120FD
:1037A00000E00020B842C7D00020E0E72DE9F0415A
:1037B00004460D4616461F463DE020684069C0F3AA
:1037C0008020E8B12068006840F40070216808603B
:1037D0006FF480602168486100202063202084F815
:1037E0003D00002084F83E00206C40F0040020647E
:1037F00000BF002084F83C0000BF0120BDE8F0813C
:10380000701CC0B1FDF786FFC01BB04200D896B94E
:1038100000202063202084F83D00002084F83E0032
:10382000206C40F02000206400BF002084F83C00A1
:1038300000BF0120E2E7C5F3074001280AD1206854
:103840004069A9B20840A9B2884201D101200BE029
:10385000002009E020688069A9B20840A9B2884226
:1038600001D1012000E000200028A6D00020C5E7FB
:1038700070B504460D46164632E020684069C0F334
:103880000010A0B16FF01000216848610020206393
:10389000202084F83D00002084F83E00206C206445
:1038A00000BF002084F83C0000BF012070BDFDF780
:1038B00031FF801BA84200D895B90020206320204A
:1038C00084F83D00002084F83E00206C40F0200089
:1038D000206400BF002084F83C0000BF0120E5E721
:1038E00020684069C0F380100028C6D00020DDE7C2
:1038F00070B504460D46164620E02046FFF70EFD43
:1039000008B1012070BD681CC0B1FDF703FF801B2A
:10391000A84200D895B900202063202084F83D00FB
:10392000002084F83E00206C40F02000206400BF9E
:10393000002084F83C0000BF0120E3E720684069D4
:10394000C0F3C0100028D8D00020DBE7F8B504464B
:103950000D4616464FF47A7033462A4621460090AB
:103960000448FEF767F907460FB90020F8BD0120AB
:10397000FCE70000941100207CB50446FCF704FD30
:103980000546FCF7F1FC06460020CDE90004084896
:10399000006800EB800202EBC002064800EB8200E8
:1039A0002B463246416A0248006800F073FB7CBD3A
:1039B000380000209C10002010B50948006880697C
:1039C00040F001000649096888610122102105487C
:1039D000FDF79AFE012280210248FDF795FE10BDF9
:1039E00064100020000C024000B587B000BF00202A
:1039F0000190FE48006840F08000FC4908600846DD
:103A0000006800F08000019000BF00BF00BF0020F0
:103A100001900846006840F0800008600846006891
:103A200000F08000019000BF00BF00BF00200190A7
:103A30000846006840F0800008600846006800F012
:103A40008000019000BF00BF00BF00200190084629
:103A5000006840F0020008600846006800F00200BC
:103A6000019000BF00BF00BF002001900846006821
:103A700040F0010008600846006800F00100019075
:103A800000BF00BF00BF002001900846006840F062
:103A9000010008600846006800F00100019000BFC6
:103AA00000BF00BF002001900846006840F00200FF
:103AB00008600846006800F00200019000BF00BFE7
:103AC00000BF002001900846006840F040000860F8
:103AD0000846006800F04000019000BF00BF00BF32
:103AE000002001900846006840F010000860084679
:103AF000006800F01000019000BF00BF00BF002070
:103B000001900846006840F0100008600846006810
:103B100000F01000019000BF00BF00BF0020019026
:103B20000846006840F0800008600846006800F021
:103B30008000019000BF00BF00BF00200190084638
:103B4000006840F0400008600846006800F040004F
:103B5000019000BF00BF00BF002001900846006830
:103B600040F0400008600846006800F04000019006
:103B700000BF00BF00BF002001900846006840F46D
:103B8000807008600846006800F48070019000BFF3
:103B900000BF00BF002001900846006840F004000C
:103BA00008600846006800F00400019000BF00BFF4
:103BB00000BF002001900846006840F48070086053
:103BC0000846006800F48070019000BF00BF00BF8D
:103BD000002001900846006840F010000860084688
:103BE000006800F01000019000BF00BF00BF00207F
:103BF00001900846006840F04000086008460068F0
:103C000000F04000019000BF00BF00BF0020019005
:103C10000846006840F0080008600846006800F0A8
:103C20000800019000BF00BF00BF002001900846BF
:103C3000006840F0080008600846006800F00800CE
:103C4000019000BF00BF00BF00200190084600683F
:103C500040F4807008600846006800F480700190AD
:103C600000BF00BF00BF002001900846006840F080
:103C7000010008600846006800F00100019000BFE4
:103C800000BF00BF002001900846006840F002001D
:103C900008600846006800F00200019000BF00BF05
:103CA00000BF002001900846006840F00200086054
:103CB0000846006800F00200019000BF00BF00BF8E
:103CC000002001900846006840F040000860084667
:103CD000006800F04000019000BF00BF00BF00205E
:103CE00001900846006840F480700860084600684B
:103CF00000F48070019000BF00BF00BF0020019061
:103D00000846006840F4807008600846006800F4C7
:103D10008070019000BF00BF00BF002001900846E6
:103D2000006840F0200008600846006800F02000AD
:103D3000019000BF00BF00BF00200190084600684E
:103D400040F0080008600846006800F00800019094
:103D500000BF00BF00BF002001900846006840F08F
:103D6000080008600846006800F00800019000BFE5
:103D700000BF0220059003900120049004200290CF
:103D80000E20069002A91A48FDF7B0FB0820029009
:103D90000E20069002A91648FDF7A8FB4FF480708C
:103DA00002900E20069002A91148FDF79FFB01200A
:103DB00002900920069002A90E48FDF797FB4FF4E8
:103DC000006002900E20069002A90B48FDF78EFBC2
:103DD0004FF4805002900E20069002A90648FDF78D
:103DE00085FB022002900920069007E0303802404F
:103DF000001C0240000402400000024002A9644886
:103E0000FDF774FB402002900E20069002A9614845
:103E1000FDF76CFB202002900E20069002A95E4860
:103E2000FDF764FB402002900E20069002A95A483C
:103E3000FDF75CFB4FF4005002900E20069002A9A3
:103E40005648FDF753FB4FF480600290092006901E
:103E500002A95048FDF74AFB4FF4004002900E20A3
:103E6000069002A94D48FDF741FB012002900E206B
:103E7000069002A94A48FDF739FB802002900E20E7
:103E8000069002A94748FDF731FB042002900E205E
:103E9000069002A94248FDF729FB102002900E204F
:103EA000069002A93C48FDF721FB4FF48050029098
:103EB0000E20069002A93748FDF718FB402002901B
:103EC0000E20069002A93848FDF710FB4FF4006061
:103ED00002900E20069002A92E48FDF707FB102045
:103EE00002900E20069002A92D48FDF7FFFA082047
:103EF00002900E20069002A92C48FDF7F7FA4FF425
:103F0000807002900E20069002A92148FDF7EEFA7B
:103F10004FF4007002900E20069002A91C48FDF795
:103F2000E5FA802002900E20069002A91948FDF7BC
:103F3000DDFA4FF4806002900E20069002A9184826
:103F4000FDF7D4FA4FF4007002900E20069002A9FB
:103F50001348FDF7CBFA4FF4806002900E200690D4
:103F600002A91348FDF7C2FA102002900220059022
:103F700001200390049002A90B48FDF7B7FA8020B6
:103F8000029002A90848FDF7B1FA07B000BD000091
:103F9000000402400018024000100240001C0240D1
:103FA0000020024000080240000C024000000240D5
:103FB0000014024070B58EB004460D46164600202F
:103FC0000190FCF7D1F9029000200390FCF7DCF996
:103FD000049005960A95FF200690002007908DF822
:103FE000340000218DF835108DF836104FF4C06084
:103FF000089007200990FCF7B7F90B90FCF7C4F97B
:104000000C90224601A91048FDF73EFF4FF0FF300B
:1040100004EB44010D4A02EB810148600C4804EBBB
:10402000440102EB810188604FF07F4004EB4401C2
:1040300042F8210004480068406A40F0010002494B
:10404000096848620EB070BD641000204C11002059
:10405000100000200149086070470000380000206F
:104060000449096801EB4101034A02EB81018860C0
:1040700070470000380000204C11002070B5044645
:104080000D46224629460248FDF7BBFF70BD0000E1
:10409000641000202DE9F84304460D4616461F46DD
:1040A000DDE908984FF440303649486036480068EA
:1040B00000EB800101EBC001344800EB8100006996
:1040C000022803D102212F4881603DE02E4800687C
:1040D00000EB800101EBC0012C4800EB810000697E
:1040E00018B90021274881602EE02748006800EBBE
:1040F000800101EBC001254800EB81000069012827
:1041000003D101211F4881601EE01F48006800EBB9
:10411000800101EBC0011D4800EB8100006903280C
:1041200003D10321174881600EE01748006800EBB7
:10413000800101EBC001154800EB810000690428F3
:1041400002D104210F4881600E48C0F80C9010483D
:104150000C4908600846FDF733F880B92146094844
:10416000FCF7C8FF58B933462A4641460548009730
:10417000FDF70AF918B964210248FDF752F8BDE8C5
:10418000F88300000C110020380000209C10002053
:1041900000B00240F0B58E880768FF68C7F30B4790
:1041A0003E44330406688436802707FB026676683F
:1041B00006F47047066884364FF0800C0CFB0266EC
:1041C00077600E680768FF68C7F30B473E44761CAC
:1041D0001E43076884370CFB02777E608E89076870
:1041E000FF68C7F30A073E44330406688436802715
:1041F00007FB0266B66806F47047066884360CFB57
:104200000266B7608E680768FF68C7F30A073E4416
:10421000761C46EA0307066884360CFB0266B76024
:1042200006688436802707FB0266366926F0070792
:10423000066884360CFB026637610F6906688436AF
:104240000CFB026637613126765C33023226765CDF
:1042500034040E7E350606688436802707FB026626
:10426000B6690027066884360CFB0266B76191F8D0
:1042700030601E43264346EA0507066884360CFB79
:104280000266B76106688436802707FB0266766996
:1042900026F0FF07066884360CFB026677614F69DB
:1042A000066884360CFB02667761066884368027D0
:1042B00007FB0266F66940F20777BE43076884375A
:1042C0000CFB0277FE61D1E9077637430668843636
:1042D0000CFB0266F76106688436802707FB0266DE
:1042E000B66A0027066884360CFB0266B7624F6A1E
:1042F000066884360CFB0266B7620E690EB90423A9
:1043000013E00E69012E01D103230EE00E69042E85
:1043100008D00E69022E05D00E69032E02D00E6958
:10432000072E01D1022300E001230668843680278E
:1043300007FB0266F66A06F0E027066884364FF04F
:10434000800C0CFB0266F762D1E90076F61B5E4337
:10435000F61C0F8D5F4346EA0747066884360CFB60
:104360000266F76206688436802707FB0266366BB2
:10437000F70AFF02066884360CFB02663763CF6AD1
:10438000066884360CFB0266376306688436D701FC
:10439000F65946F00107066884364FEAC21C46F813
:1043A0000C70F0BD08B500BF002000901D480068EB
:1043B00040F004001B4908600846006800F0040053
:1043C000009000BF00BF00BF0020009008460068BA
:1043D00040F0800008600846006800F0800000900F
:1043E00000BF00BF00BF002000900846006840F0FA
:1043F000010008600846006800F00100009000BF5E
:1044000000BF00BF002000900846006840F0020096
:1044100008600846006800F00200009000BF00BF7E
:1044200008BD00003038024010B50B480B49086049
:104430004FF4E1304860002108488160C1600161AB
:104440000C21416100218161C161FEF780FD08B14D
:10445000FCF718F910BD000000100140A00F00206B
:1044600000BFFEE77047704700B587B000BF00206F
:104470000190FE48006840F02000FC4908600846B2
:10448000006800F02000019000BF00BF00BF0020C6
:1044900001900846006840F0200008600846006867
:1044A00000F02000019000BF00BF00BF002001907D
:1044B0000846006840F0200008600846006800F0E8
:1044C0002000019000BF00BF00BF002001900846FF
:1044D000006840F0200008600846006800F02000F6
:1044E000019000BF00BF00BF002001900846006897
:1044F00040F0200008600846006800F020000190AD
:1045000000BF00BF00BF002001900846006840F0D7
:10451000200008600846006800F02000019000BFFD
:1045200000BF00BF002001900846006840F0200056
:1045300008600846006800F02000019000BF00BF3E
:1045400000BF002001900846006840F0200008608D
:104550000846006800F02000019000BF00BF00BFC7
:10456000002001900846006840F0200008600846DE
:10457000006800F02000019000BF00BF00BF0020D5
:1045800001900846006840F0200008600846006876
:1045900000F02000019000BF00BF00BF002001908C
:1045A0000846006840F0400008600846006800F0D7
:1045B0004000019000BF00BF00BF002001900846EE
:1045C000006840F0400008600846006800F04000C5
:1045D000019000BF00BF00BF0020019008460068A6
:1045E00040F0080008600846006800F008000190EC
:1045F00000BF00BF00BF002001900846006840F0E7
:10460000080008600846006800F00800019000BF3C
:1046100000BF00BF002001900846006840F008007D
:1046200008600846006800F00800019000BF00BF65
:1046300000BF002001900846006840F008000860B4
:104640000846006800F00800019000BF00BF00BFEE
:10465000002001900846006840F0100008600846FD
:10466000006800F01000019000BF00BF00BF0020F4
:1046700001900846006840F0100008600846006895
:1046800000F01000019000BF00BF00BF00200190AB
:104690000846006840F0100008600846006800F016
:1046A0001000019000BF00BF00BF0020019008462D
:1046B000006840F0100008600846006800F0100034
:1046C000019000BF00BF00BF0020019008460068B5
:1046D00040F0100008600846006800F010000190EB
:1046E00000BF00BF00BF002001900846006840F0F6
:1046F000100008600846006800F01000019000BF3C
:1047000000BF00BF002001900846006840F0100084
:1047100008600846006800F01000019000BF00BF6C
:1047200000BF002001900846006840F010000860BB
:104730000846006800F01000019000BF00BF00BFF5
:10474000002001900846006840F01000086008460C
:10475000006800F01000019000BF00BF00BF002003
:1047600001900846006840F00800086008460068AC
:1047700000F00800019000BF00BF00BF00200190C2
:104780000846006840F0080008600846006800F02D
:104790000800019000BF00BF00BF00200190084644
:1047A000006840F0080008600846006800F0080053
:1047B000019000BF00BF00BF0020019008460068C4
:1047C00040F0800008600846006800F0800001901A
:1047D00000BF00BF00BF002001900846006840F005
:1047E000400008600846006800F04000019000BFEB
:1047F00000BF00BF002001900846006840F0400064
:1048000008600846006800F04000019000BF00BF4B
:1048100000BF002001900846006840F004000860D6
:104820000846006800F00400019000BF00BF00BF10
:10483000002001900846006840F02000086008460B
:10484000006800F02000019000BF00BF00BF002002
:1048500001900846006840F0400008600846006883
:1048600000F04000019000BF00BF01E0303802407E
:1048700000BF002001900846006840F0400008603A
:104880000846006800F04000019000BF00BF00BF74
:10489000002001900846006840F08000086008464B
:1048A000006800F08000019000BF00BF00BF002042
:1048B00001900846006840F0100008600846006853
:1048C00000F01000019000BF00BF00BF0020019069
:1048D0000846006840F0100008600846006800F0D4
:1048E0001000019000BF00BF02200390012004903F
:1048F000022005900C2006900120029002A97B481E
:10490000FCF7F4FD0220029002A97848FCF7EEFDC6
:104910000420029002A97548FCF7E8FD08200290E7
:1049200002A97248FCF7E2FD1020029002A96F482C
:10493000FCF7DCFD2020029002A96C48FCF7D6FDB4
:104940004FF48050029002A96848FCF7CFFD4FF465
:104950000050029002A96548FCF7C8FD4FF4804062
:10496000029002A96148FCF7C1FD4FF4004002909B
:1049700002A95E48FCF7BAFD0120029002A95C483A
:10498000FCF7B4FD0220029002A95948FCF7AEFDE5
:104990004FF48040029002A95648FCF7A7FD4FF45F
:1049A0000040029002A95348FCF7A0FD01200290AC
:1049B00002A95048FCF79AFD0220029002A94D4836
:1049C000FCF794FD8020029002A94B48FCF78EFD75
:1049D0004FF48070029002A94748FCF787FD4FF41E
:1049E0000070029002A94448FCF780FD4FF48060FB
:1049F000029002A94048FCF779FD4FF40060029054
:104A000002A93D48FCF772FD4FF48050029002A9C4
:104A10003948FCF76BFD4FF40050029002A936486C
:104A2000FCF764FD4FF48040029002A93248FCF785
:104A30005DFD4FF40040029002A92F48FCF756FD9F
:104A40004FF48070029002A92A48FCF74FFD4FF402
:104A50000070029002A92748FCF748FD4FF48060DF
:104A6000029002A92348FCF741FD4020029002A9D0
:104A70002248FCF73BFD1020029002A91C48FCF7DD
:104A800035FD2020029002A91948FCF72FFD0120D6
:104A9000029002A91A48FCF729FD4FF40060029029
:104AA00002A91248FCF722FD4FF40040029002A92F
:104AB0000F48FCF71BFD4FF48070029002A90C48D0
:104AC000FCF714FD8020029002A90C48FCF70EFDB3
:104AD0000220029002A90848FCF708FD012002907C
:104AE00002A90548FCF702FD07B000BD0014024012
:104AF00000180240000C024000100240001C02405E
:104B00000008024000B589B0FFF7AEFC00BF0020EE
:104B100001901D48006840F001001B4908600846EC
:104B2000006800F00100019000BF00BF174818495D
:104B30000860012048600021154881600421C1609F
:104B40001021016140214161890081610021C16121
:104B50004FF400610162490041620021816202203C
:104B60000290072003900420049007200590022063
:104B700006900790089002A90548FEF787F800F014
:104B800009F809B000BD000038380240400100A01B
:104B90003010002010B500240120204908600820B2
:104BA000486000208860C8604FF6FF721C48FEF71E
:104BB000A2F8012000F036F8022018490860082009
:104BC000486000208860C8604FF6FF721448FEF706
:104BD00092F803201149086008204860022088608C
:104BE0000020C8604FF6FF720D48FEF784F840F2CF
:104BF00022240420094908600820486001208860B8
:104C00000846C4604FF6FF720548FEF774F840F29C
:104C10006A510348FEF75BF810BD00002010002029
:104C20003010002001B581B00020009005490198A6
:104C30004843009002E00098401E00900098002831
:104C4000F9D10CBDA08601007047704700B593B044
:104C5000302107A8FBF710FB142102A8FBF70CFB7F
:104C600000BF002001902648006840F08050244991
:104C700008600846006800F08050019000BF00BF47
:104C800000BF002001901F48006840F440401D49CB
:104C900008600846006800F44040019000BF00BF73
:104CA000012007900004089002200D9041050E910C
:104CB0000F210F91D82110910221119104211291FD
:104CC00007A8FDF79FFD08B1FBF7DCFCFDF770FAC4
:104CD00008B1FBF7D7FC0F200290022003900020C0
:104CE00004904FF4A05005904FF480500690052199
:104CF00002A8FDF725FC08B1FBF7C4FC13B000BD0A
:104D000040380240007000400548006840F47000E0
:104D1000034908604FF0006001498039086070471E
:104D200088ED00E010B50248FEF735F810BD000030
:104D3000E00F002010B50268294B98420ED0B0F168
:104D4000804F0BD0274B984208D0274B984205D074
:104D5000264B984202D0264B984203D122F0700293
:104D60004B681A431E4B984220D0B0F1804F1DD0A3
:104D70001C4B98421AD01C4B984217D01B4B9842A0
:104D800014D01B4B984211D01A4B98420ED01A4B9C
:104D900098420BD0194B984208D0194B984205D035
:104DA000184B984202D0184B984203D122F440721B
:104DB000CB681A4322F080034C6943EA0402026084
:104DC0008B68C3620B688362054B984202D0084B24
:104DD000984201D10B6903630123436110BD0000B8
:104DE000000001400004004000080040000C0040AA
:104DF00000040140004001400044014000480140DF
:104E000000180040001C0040002000402DE9F84F31
:104E100004462068006920F44050E1680843216896
:104E200008612169A068084361690843E169084392
:104E300000902068C06849F20C61884300990843DB
:104E40002168C8602068406920F44070A169084367
:104E500021684861E069B0F5004F75D1E3492068E9
:104E6000884203D0E249206888426FD1FDF762FC96
:104E7000814602206168A0FB01510B461920A9FB65
:104E800000712A463846FBF7ADF96421B0FBF1F01A
:104E90004FEA001A02206168A0FB01510B4619205D
:104EA000A9FB00712A463846FBF79CF90746022009
:104EB0006168A0FB01510B461920A9FB00B12A46ED
:104EC0005846FBF78FF96421B0FBF1F000EBC0010D
:104ED00001EB0010A7EB8000322101EBC000642140
:104EE000B0FBF1F000F0F8000AEB400A0220616824
:104EF000A0FB01510B461920A9FB00712A46384638
:104F0000FBF770F9074602206168A0FB01510B46D0
:104F10001920A9FB00B12A465846FBF763F9642122
:104F2000B0FBF1F000EBC00101EB0010A7EB80003B
:104F3000322101EBC0006421B0FBF1F000F007006A
:104F40005044216888604FE16EE0FFE7FDF7E2FB27
:104F5000814602206168A0FB01510B461920A9FB84
:104F600000712A463846FBF73DF96421B0FBF1F0A9
:104F70004FEA001A02206168A0FB01510B4619207C
:104F8000A9FB00712A463846FBF72CF90746022098
:104F90006168A0FB01510B461920A9FB00B12A460C
:104FA0005846FBF71FF96421B0FBF1F000EBC0019C
:104FB00001EB0010A7EB8000322101EBC00064215F
:104FC000B0FBF1F000F0F8000AEB400A0220616843
:104FD000A0FB01510B461920A9FB00712A46384657
:104FE000FBF700F9074602206168A0FB0150034669
:104FF0001920A9FB00B12A465846FBF7F3F86421B3
:10500000B0FBF1F000EBC00101EB0010A7EB80005A
:10501000322101EBC0006421B0FBF1F000F0070089
:10502000504421688860DFE070492068884203D0DE
:105030006F49206888426BD1FDF77CFB81460420D4
:105040006168A0FB01510B461920A9FB00712A469B
:105050003846FBF7C7F8824604206168A0FB01517F
:105060000B461920A9FB00712A463846FBF7BAF80F
:105070006421B0FBF1F000EBC00101EB0010AAEBE2
:105080008000322101EB00106421B0FBF1F000F050
:10509000F00A04206168A0FB015003461920A9FB17
:1050A00000712A463846FBF79DF86421B0FBF1F009
:1050B0000AEB001A04206168A0FB01510B4619207D
:1050C000A9FB00712A463846FBF78CF807460420F6
:1050D0006168A0FB015003461920A9FB00B12A46D4
:1050E0005846FBF77FF86421B0FBF1F000EBC001FC
:1050F00001EB0010A7EB8000322101EB00106421CE
:10510000B0FBF1F000F00F005044216888606BE0C4
:10511000FDF700FB814604206168A0FB01500346B7
:105120001920A9FB00712A463846FBF75BF8824636
:1051300004206168A0FB015003461920A9FB0071FF
:105140002A463846FBF74EF86421B0FBF1F000EB3D
:10515000C00101EB0010AAEB8000322101EB00102E
:105160006421B0FBF1F000F0F00A04206168A0FBBC
:10517000015003461920A9FB00712A463846FBF767
:1051800031F86421B0FBF1F00AEB001A04206168E9
:10519000A0FB017003461920A9FB005001463A46C6
:1051A0002846FBF71FF8074604206168A0FB015062
:1051B00003461920A9FB00B12A465846FBF712F80E
:1051C0006421B0FBF1F000EBC00101EB0010A7EB94
:1051D0008000322101EB00106421B0FBF1F000F0FF
:1051E0000F00504421688860BDE8F88F001001402E
:1051F000001401402DE9F04104460D46174698463B
:10520000069E21E0701CF8B12EB1FCF783FAA0EBEA
:105210000800B04218D92068C06820F4D070216816
:10522000C8602068406920F00100216848612020A2
:1052300084F8390084F83A0000BF002084F8380070
:1052400000BF0320BDE8F081206800682840A84224
:1052500001D1012000E00020B842D3D00020F1E7C6
:1052600000BFFEE70FB4054B10B503A9044A02982E
:1052700000F034F810BC5DF814FB0000A55C0008D9
:105280009C0F002002480068C0F302207047000015
:105290000CED00E010B5002804DB0A07130E054AE8
:1052A000135406E00A07140E034A00F00F031B1FF5
:1052B000D45410BD00E400E018ED00E002E008C89E
:1052C000121F08C1002AFAD170477047002001E080
:1052D00001C1121F002AFBD1704700002DE9FF4FCA
:1052E0008DB00F460546002606E025280BD0DDE9E7
:1052F0000F1290476D1C761C28780028F5D111B04C
:105300003046BDE8F08F0024A246A1460122EC49B8
:1053100000E0044315F8013F203B02FA03F0084285
:10532000F7D128782A2810D06FF02F022878A0F122
:105330003001092914D80AEB8A0102EB410144F03B
:10534000020400EB010A6D1CF0E701CF5FEA000ADE
:1053500003D544F40054CAF1000A44F002046D1C61
:1053600028782E2817D115F8010F44F004042A28B4
:105370000ED06FF02F022878A0F1300109290AD849
:1053800009EB890102EB410100EB01096D1CF2E719
:1053900057F8049B6D1C28786C280FD006DC4C282D
:1053A00017D068280DD06A2814D104E0742810D0D2
:1053B0007A280FD10DE044F400140AE044F480147C
:1053C00001E044F440146978814202D104F580146C
:1053D0006D1C6D1C2A786E2A1FD00CDC632A31D01C
:1053E00004DC002A8BD0582A11D1A3E0642A68D0AB
:1053F000692A0CD165E0732A2ED004DC6F2A73D0A1
:10540000702A04D19BE0752A6FD0782A6ED010469E
:10541000DDE90F129047761C50E1C4F302500228D8
:1054200006D0032809D0042801CF09D0066045E141
:1054300001CFF117C0E9006140E101CF06803DE1F5
:1054400006703BE117F8040B8DF8000000208DF882
:105450000100EB46012003E057F804BB4FF0FF309A
:1054600061074FF0000102D40DE008F10101884608
:1054700049450FDA8045F8DB1BF808100029F4D104
:1054800008E008F1010188468142FADB1BF80810A8
:105490000029F6D1DDE90F23AAEB08008146214659
:1054A00000F036F9304400EB080604E0DDE90F12A5
:1054B0001BF8010B9047B8F10108F7D22146484686
:1054C000F7E00A21C4F302534FF0000B0891022BBE
:1054D00004D001CFC117032B09D00AE0FF1D27F02C
:1054E0000707F7E8020108E032E01FE020E000B221
:1054F000C117042B01D140B2C117031E71F1000383
:1055000007DA4FF0000CD0EB0C006CEB01012D23FF
:1055100002E0230504D52B238DF82430012303E07A
:10552000E30701D02023F7E7984658E00A2110E06E
:1055300010210EE010204FF0000B08900CE010211D
:105540004FF0000B44F004044FF00809089103E009
:1055500008214FF0000B0891C4F30253022B04D032
:1055600001CF0021032B06D006E0FF1D27F007071F
:10557000F7E8020103E080B2042B00D1C0B24FF083
:10558000000823072BD5702A07D0DDF820C08CF047
:10559000100C5CEA0B0C05D00EE040238DF8243093
:1055A000012308E050EA010306D030238DF82430AF
:1055B0008DF8252002239846DDF820C08CF0080CD9
:1055C0005CEA0B0C0BD150EA010301D1630706D54D
:1055D00030238DF824304FF00108A9F10109582A31
:1055E00004D038A20B9208AA0A920BE03AA2F9E77B
:1055F0005B46089AFAF7F6FD0B9B9B5C0A9A521ED3
:105600000A92137050EA0102F2D10A98ADEB000041
:1056100000F1200B600702D524F4803401E04FF044
:105620000109D94502DDA9EB0B0000E0002000EBE9
:105630000B0141440890AAEB010AE00306D4DDE91E
:105640000F232146504600F063F806444FF000094E
:1056500008E009A911F80900DDE90F12904709F1E6
:105660000109761CC145F4DBE0030CD5DDE90F230D
:105670002146504600F04CF8064404E0DDE90F12E4
:1056800030209047761C0899481E08900029F5DCC8
:1056900008E00A980A990078491C0A91DDE90F127E
:1056A0009047761CBBF10001ABF1010BF1DC214608
:1056B0005046DDE90F2300F019F806446D1C1BE687
:1056C00009280100303132333435363738396162D8
:1056D000636465660000000030313233343536379C
:1056E0003839414243444546000000002DE9F0416D
:1056F000044600251E461746880404D405E03946B2
:105700002020B0476D1C641EF9D52846BDE8F08105
:105710002DE9F041044600251E469046C80301D5F8
:10572000302700E02027880404D505E041463846AC
:10573000B0476D1C641EF9D52846BDE8F081000015
:1057400010B58AB0044694F82000C0F3400020B998
:1057500094F8200000F0010070B194F82000C0F32C
:105760004000F0B994F8200000F00100C8B194F8AE
:105770002000C0F38000A0B12422214601A8FAF73E
:1057800062FD2146194807F082FD204607F0EAFD38
:10579000012017490870049810B101A8049988479E
:1057A0001FE0E08B404200B2608394F8200000F0DC
:1057B0000100B0B194F82010C1F3800119B9A18B98
:1057C000494209B261831034217C8908C943227C93
:1057D00061F3820222742068616821606060103C7D
:1057E00000BF034800780AB010BD000090150020EB
:1057F000200F00202DE9F04107462F4807F060FCFC
:10580000044608E0206A20F00800206221462A4869
:1058100007F05BFC0446002CF4D12848006809F02E
:10582000D1FD0646244807F04BFC04463CE000202E
:105830002349087094F82000C0F3C00038BB206AE8
:1058400020F0080008302062608B304400B2608392
:10585000B4F91A0000281ADBB4F91A00218B884227
:1058600002DD208B00B260832046A1688847054690
:10587000606818B129B2D4E900029047B4F91A005F
:10588000218B884202DB2046FFF75AFF00BF0C48FD
:10589000007820B1084807F013FC044604E02146D4
:1058A000054807F012FC0446002CC0D109F098FD11
:1058B00002490860BDE8F081901500201C0F00200F
:1058C000200F002030B50346022B04D10E48405C67
:1058D0005043001230BD032B04D10C48405C5043B0
:1058E0000012F7E7042B04D10948405C5043001232
:1058F000F0E7C1EBC105581EB5FBF0F0C4B2054896
:10590000005D5043000AE5E7223D0108243D0108FF
:10591000273D01082B3D010810B5FEF785FD00F07D
:1059200043F810BD00B587B000BF002001901C48AF
:10593000006840F080001A4908600846006800F0DE
:105940008000019000BF00BF012209151548FBF738
:10595000DBFE0122D1021348FBF7D6FE0122110320
:105960001048FBF7D1FE0120039000200490059021
:105970004FF48060029002A90A48FBF7B7FD4FF48C
:105980000060029002A90748FBF7B0FD4FF4805079
:10599000029002A90348FBF7A9FD012007B000BD52
:1059A00030380240001C024038B5012400BF0020FE
:1059B00000901C48006840F480001A4908600846BE
:1059C000006800F48000009000BF00BF164817492F
:1059D0000860E0064860402114488160002141626F
:1059E000032181620021C1628161A1020161002164
:1059F000C16101634161C16021040162FBF7ECFCFC
:105A000004463CB900BF09480949086308460749EC
:105A1000886305E000BF292106A0FFF723FC00BF33
:105A2000002038BD30380240B8640240E811002040
:105A3000A00F00203C3C2D4552524F522D3E3E209F
:105A40005B25645D444D4120696E69742065727206
:105A50006F720D0A000000002DE9F04106460C4669
:105A60001546B4F90400B4F90010401A401CC0F502
:105A7000487087B200201F4908600846C560B4F925
:105A8000000061884FF4487212FB01011A48C06D92
:105A9000022202FB01001749C86300200861084682
:105AA00007640220C861A0882188411A491CB4F902
:105AB0000600B4F90220801A401C61F31F400D4912
:105AC00048640846006840F00100086005E0404670
:105AD00008F10108401C00B905E00648006800F024
